S00D00004E6F6465322E737265635F
S214080000F80800204D0508004B0508004B050800B9
S2140800104B0508004B0508004B05080000000000CB
S2140800200000000000000000000000004B0508006B
S2140800304B050800000000004B0508005D08080096
S2140800404B0508004B0508004B0508004B05080043
S2140800504B0508004B0508004B0508004B05080033
S214080060F50D08004B050800000000004B050800C9
S2140800704B0508004B0508004B050800000000006B
S214080080000000004B0508004B0508004B0508005B
S2140800904B0508004B0508004B0508004B050800F3
S2140800A04B050800000000004B0508004B0508003B
S2140800B04B0508004B0508004B0508004B050800D3
S2140800C04B0508004B0508004B0508004B050800C3
S2140800D04B0508004B0508004B0508004B050800B3
S2140800E04B0508004B0508004B05080019040800D6
S2140800F04B05080010B5054C237833B9044B13B1EB
S2140801000448AFF300800123237010BD5404002078
S21408011000000000E81C08000C4B43B10C4810B562
S2140801200C49AFF300800C48036823B910BD0A4891
S214080130036833B97047094B002BF7D0BDE8104069
S2140801401847064B002BF5D0184700BF00000000E4
S214080150E81C080058040020E81C080000000000FE
S214080160094B80225A601A6102221A60074A03F570
S214080170013303F50073C3F80C21054A136843F0EE
S21408018020031360704700BF00000C4025000010D5
S21408019000070E40174BDB6E9BB2B3F57A7F27D26B
S2140801A000B585B040F2DB52934204D81149CB6EB5
S2140801B09BB29342FBD9104A13680133136002229C
S2140801C0ADF8042001228DF80620032B02D005B0D6
S2140801D05DF804FB8DF80730002101A8074B984707
S2140801E00022054B1A60064B9847064B9847EEE7E1
S2140801F0704700BF00000C40700400200903080088
S21408020091060800010808002DE9F043551808294A
S21408021098BF082A64D80E46082D61DC324A13684F
S21408022023F0010313601369304B4FF440745C6489
S2140802301C6F24F003041C6703245C605C66A3F54B
S21408024000632B4CC3F80C41D3F8004144F4006417
S214080250C3F800415061A94240DC0A460024A14682
S214080260DFF884804FF0005C4FF0807E0127530152
S21408027003F1402000F53020C0F804924344C3F848
S21408028008C2C0F800E2D3F81C0240F40000C3F825
S2140802901C0207FA02F31C4301329542E7DA81B1E1
S2140802A0002311494FF000554FF0407001EB431200
S2140802B0C2F8085203F110025201885001339E42D8
S2140802C0F4D1094B5C604FF400610A4A51601A6821
S2140802D042F001021A600020BDE8F0830024DEE741
S2140802E00120BDE8F08300BF00400B40000E0E4022
S2140802F02B10001000E100E008B502220121014B96
S214080300984708BD090208004B0103F1402303F58E
S2140803103023D3F8103213F4000F36D003881C4A63
S21408032002EA834242F000524B0103F1402303F5F0
S2140803303023C3F808228378072B84BF07238370EB
S214080340827943791B0443EA0263C278134302792D
S21408035043EA0223490101F1402101F53021C1F8A1
S2140803601432827A437A1B0443EA0263C27913433F
S214080370027A43EA0223C1F8183283781B0443F44E
S2140803800003C1F81C32002070470120704700BFE8
S2140803900000FC1F4B0103F1402303F53023D3F87C
S2140803A0103213F4000F33D030B44B0103F140235E
S2140803B003F53023D3F81422D3F81842D3F808529A
S2140803C0C5F38A450580D3F81032C3F30343837018
S2140803D01D465BB103300023032BD9BF0270120AF7
S2140803E00470240A01330130AB42F5D1094B01F100
S2140803F0100252014FF08070985003EB4111D1F86B
S2140804001C3243F40003C1F81C32002030BC70478D
S2140804100120704700400B4010B584B02D4B1C6976
S21408042014F0060F18D014F0020F22D114F0040F9F
S21408043024D0022101A8284B98479DF806201AB117
S214080440002301339342FCD1BDF80430012B19D0A8
S214080450052B28D0092B2FD014F0010F02D001222B
S2140804601C4B9A604FF400621C4BC3F8842104B0FE
S21408047010BD012101A8184B9847DEE71848194B0C
S2140804809847DAE79DF80700174B98479DF8082025
S214080490164B1A609DF80900154B9847154B984758
S2140804A0154B9847D8E7154B9847154B9847154B63
S2140804B09847154B9847CFE79DF80730012B06D08D
S2140804C09DF80730022BC7D1104B9847C4E7104B4E
S2140804D09847F5E700400B409503080000E100E068
S2140804E06C1C0800310C0800A90C08007C040020CD
S2140804F0E50C080095010800A5060800ED070800A9
S214080500550C080061010800F10608009508080067
S214080510710808000028C8BF002208DD46F2A813A4
S21408052000BF013BFCD101329042F7D170477047BB
S2140805300028C8BF002207DD192300BF013BFCD1F5
S21408054001329042F8D170477047FEE708B5184B5D
S214080550184A9A4210D0184B154A9A420CD2013BB8
S2140805609B1A23F0030304331344124951F8040B6F
S21408057042F8040B9A42F9D1104B114A9A420AD211
S214080580013B9B1A23F0030304331344002142F86B
S214080590041B9342FBD10B4B23F0604323F07F03ED
S2140805A0094A9360094B9847094B9847FEE700BFEE
S2140805B000000020E81C080054040020F404002072
S2140805C0540400200000080000ED00E0FD1A0800B2
S2140805D0B90608004FF48063204A136002F50072DB
S2140805E013601F4B1B6A13F0807F07D11D4A1C4BF4
S2140805F01A621A46936E13F0010FFBD01A4A184B6C
S2140806001A621A46936E13F4803FFBD0144A136B93
S21408061023F0030343F001031363936E13F0080FEC
S214080620FBD0124A0E4B9A621A46936E13F0020FCC
S214080630FBD011220A4B1A631A46936E13F0080F62
S214080640FBD01222064B1A631A46936E13F0080F55
S214080650FBD0074A074B1A60704700BF000A0E40D7
S21408066000060E400908370009083701013F0D202B
S21408067000BD010500000020044B1A6842F4C012B1
S2140806801A601A6942F4C0121A617047000E0E40CA
S214080690034B4FF400221A634FF480125A637047D4
S2140806A0000E0E40034B4FF400225A634FF480129C
S2140806B01A637047000E0E4008B5014B9847FEE7D0
S2140806C0090D080008B54FF48062074B1A634FF40B
S2140806D07A72A3F5C933A3F5F0731A6041F288302D
S2140806E0024B984708BD00BF00140E4015050800C9
S2140806F010B51C491C4B0B601C4A136843F040039A
S21408070013604FF480321A4B1A6002220C331A60B8
S214080710184C226840F207600243226023690343AC
S2140807202361154B1A6A42F4FF721A621A6E42F473
S214080730FF721A66114B0B60114A136843F4C043E4
S21408074013604FF4007323630E4B9847636B43F0B4
S214080750020363631E200C4B9847236B43F0020387
S214080760236310BD0C070E402600001000070E403D
S21408077004800C4000140E4000120E400D000010BD
S21408078010060E40C506080031050800F8B5134CDB
S214080790636B43F001036363636B43F004036363B3
S2140807A01E200F4FB8470F4EF56B236B43F004031C
S2140807B023631E20B847F06B6D08C0F3470040EA75
S2140807C0052000B2236B43F001032363064B9842CF
S2140807D0B8BF0020404200B2F8BD00BF00140E406B
S2140807E03105080000120E40E0B1FFFF024B034A35
S2140807F05A6007221A60704710E000E080A21900CD
S2140808000422014B1A60704710E000E010B5044659
S2140808100E4B98470E4B83FB0023C017C0EBE30034
S21408082000B2642CC8BFC93C04F16401094B984760
S21408083000284FF48062084BCEBF5A631A634042C2
S214080840A3F5C933A3F5F073186010BD8D0708002B
S214080850E9A28B2EB908080000140E4008B5024B12
S2140808601868024B984708BD7C0400200D0808004D
S214080870054B064A1A60064A5A614FF07C529A613E
S2140808800022DA601A617047040000200000A041C8
S21408089000007041054B064A1A60064A5A614FF036
S2140808A07E529A610022DA601A61704704000020BE
S2140808B00000F041000020412DE9F84F224C61600D
S2140808C00D1AE0682844E060DFF890A0D0471F4F74
S2140808D06169B8471E4EB04719A3D3E90023DFF86D
S2140808E08080C047804689462846D0472168B84752
S2140808F0B047DFF870B002460B4640464946D84730
S214080900804689462069281AD047A169B847B04763
S2140809100BA3D3E900230F4EB04702460B464046CA
S2140809204946D8470C4B984702462561E0698242FB
S21408093004DC43429342B8BF13461846BDE8F88F16
S214080940B81E85EB51B89E3F040000205D180800CD
S2140809502511080021140800F1150800B51708002D
S214080960CD110800690E08002DE9F8430D46161E3D
S21408097048DD0A78002A35D00A460024013412F8E1
S214080980011F0029FAD1A6422DDC002403F002023A
S214080990002A0CBF4FF020084FF0300813F0010370
S2140809A023D1002C28DD26465FFA88F9184F4846DA
S2140809B0B847013EFBD1287888B1154FB8470134AF
S2140809C015F8010F0028F9D1002E08DD35465FFA24
S2140809D088F80F4F4046B847013DFBD134442046BF
S2140809E0BDE8F8830024341BD0E72646287808B1EB
S2140809F00024E2E70024E7E726461C46DBE74FF03C
S214080A002008D8E713F00104F9D04FF02008EDE7E6
S214080A10D10D0800F0B585B0074681B30C460BB17A
S214080A200A2A38D000238DF80F300026002946D031
S214080A300DF10F050C993A39B4FBF2F302FB134398
S214080A40092BC8BF5B18303305F8013DB4FBF2F438
S214080A50002CF1D156B10A9B1BB10B9B13F0020F69
S214080A6025D12D2305F8013C013D00260B9B0A9A4B
S214080A7029463846144CA047304405B0F0BD30230C
S214080A808DF8043000238DF805300B9B0A9A01A9CF
S214080A900D4CA047F1E70029C4DA4C4200238DF834
S214080AA00F300DF10F05002CD5D00126C0E72D20FC
S214080AB0064B98470A9B013B0A930126D6E71E4633
S214080AC00DF10F05D2E700BF69090800D10D08002F
S214080AD02DE9F04F87B080460B78002B00F0948005
S214080AE08B46174600254E4EDFF83CA1DFF83C91B2
S214080AF046E0002270E0396804374A48002908BFF3
S214080B0001464046D047054435E039680437612039
S214080B1002900193009201230A224046C8470544E2
S214080B2029E0396804376120029001930092002377
S214080B3010224046C84705441DE03968043741205E
S214080B40029001930092002310224046C8470544AD
S214080B5011E039680437612002900193009200235F
S214080B600A224046C847054405E0A3469BF800000D
S214080B70B04701355C4604F1010B6378002B44D07E
S214080B80252BF3D10BF101049BF80130002B3CD048
S214080B90252BEAD02D2B06BF0BF1020401230023D8
S214080BA02278302A05D143F0020314F8012F302AA0
S214080BB0F9D02178A1F13002D2B2092A99D80022B8
S214080BC002EB8202303901EB420214F8011FA1F150
S214080BD03000C0B20928F3D973298CD0642994D080
S214080BE078299ED05829A8D07529B2D06329C2D1B1
S214080BF0396804378DF8141000218DF8151005A9EA
S214080C004046D0470544B6E70025B8F1000F03D0A4
S214080C10D8F8003000221A70284607B0BDE8F08FD2
S214080C20D10D0800981C080069090800150A080074
S214080C300FB400B583B004AA52F8041B0192002032
S214080C40034B984703B05DF804EB04B0704700BF49
S214080C50D10A0800104B1A6F42F400221A675A6825
S214080C6042F400225A602A220C4B1A600C4A136877
S214080C7043F0100313600B220A4B1A6044F62062F6
S214080C800C331A6044F25062083B1A602022A3F51F
S214080C9028731A60704700BF00120E4000400940D3
S214080CA000070E40A0420940642888BFC93800EBF8
S214080CB080004000C0F584406830014B18607047DB
S214080CC0A4420940064B1A6842F400721A601A6970
S214080CD042F400721A614FF400721A63704700BF3C
S214080CE000120E400A2800D0704738B5044C4FF45E
S214080CF0007565636420034B9847256338BD00BFBD
S214080D0000120E401505080008B50C4B98474FF41E
S214080D1000420B4B5A600B4B98470B480B4B9847B7
S214080D200B4B98470B4B98470B4B98470B4B9847E2
S214080D300B4B98470B4B984708BD00BFD5050800D6
S214080D40501A0E40690D080061051400F9020800E3
S214080D50550C08006101080079060800F10608002D
S214080D60C50C0800ED070800164B00221A705A70CA
S214080D70154B4FF44071596459601A6F186F02404A
S214080D8022F440721A6759664FF48072A3F500631E
S214080D901A6103F50073AC21196040F22321196229
S214080DA04FF40061596040F20221C3F820114FF059
S214080DB0FF31D960E121996004490A6050221A601F
S214080DC0704700BF8C040020000E0E4000E100E0D3
S214080DD0074B5B6913F0020F08D0054BD8611A461B
S214080DE0536913F4007FFBD000207047012070473A
S214080DF000080E4008B5154B5B6913F0E00F03D0EA
S214080E004FF4A871114A116013F0010F12D0104860
S214080E104278531C594203F03F0301F03F0158BF84
S214080E204B4201788B4206D00849886908490A442B
S214080E3090704B7008BD0748074B9847034B9A6954
S214080E40034B59780B449A7008BD00BF00080E4043
S214080E508C040020A01C0800310C080081F000411A
S214080E6002E000BF83F0004330B54FEA41044FEA82
S214080E70430594EA050F08BF90EA020F1FBF54EA1D
S214080E80000C55EA020C7FEA645C7FEA655C00F0B9
S214080E90E2804FEA5454D4EB5555B8BF6D420CDD8A
S214080EA02C4480EA020281EA030382EA000083EA0D
S214080EB0010180EA020281EA0303362D88BF30BDAD
S214080EC011F0004F4FEA01314FF4801C4CEA113103
S214080ED002D0404261EB410113F0004F4FEA033362
S214080EE04CEA133302D0524263EB430394EA050FED
S214080EF000F0A780A4F10104D5F1200E0DDB02FA5C
S214080F000EFC22FA05F2801841F1000103FA0EF2EF
S214080F10801843FA05F359410EE0A5F120050EF1B5
S214080F20200E012A03FA0EFC28BF4CF0020C43FAE6
S214080F3005F3C01851EBE37101F0004507D54FF0F3
S214080F40000EDCF1000C7EEB00006EEB0101B1F543
S214080F50801F1BD3B1F5001F0CD349085FEA300089
S214080F604FEA3C0C04F101044FEA445212F5800F94
S214080F7080F09A80BCF1004F08BF5FEA500C50F131
S214080F80000041EB045141EA050130BD5FEA4C0C14
S214080F90404141EB010111F4801FA4F10104E9D19D
S214080FA091F0000F04BF01460020B1FA81F308BF94
S214080FB02033A3F10B03B3F120020CDA0C3208DD60
S214080FC002F1140CC2F10C0201FA0CF021FA02F13B
S214080FD00CE002F11402D8BFC2F1200C01FA02F1AB
S214080FE020FA0CFCDCBF41EA0C019040E41AA2BFD0
S214080FF001EB0451294330BD6FEA04041F3C1CDA98
S2140810000C340EDC04F11404C4F1200220FA04F0B7
S21408101001FA02F340EA030021FA04F345EA030161
S21408102030BDC4F10C04C4F1200220FA02F001FA23
S21408103004F340EA0300294630BD21FA04F02946A5
S21408104030BD94F0000F83F4801306BF81F480113E
S2140810500134013D4EE77FEA645C18BF7FEA655CB1
S21408106029D094EA050F08BF90EA020F05D054EA83
S214081070000C04BF1946104630BD91EA030F1EBF88
S2140810800021002030BD5FEA545C05D1400049418C
S21408109028BF41F0004130BD14F580043CBF01F57F
S2140810A0801130BD01F0004545F0FE4141F4700165
S2140810B04FF0000030BD7FEA645C1ABF1946104640
S2140810C07FEA655C1CBF0B46024650EA013406BF41
S2140810D052EA033591EA030F41F4002130BD00BF00
S2140810E090F0000F04BF0021704730B54FF48064BD
S2140810F004F132044FF000054FF0000150E700BF3E
S21408110090F0000F04BF0021704730B54FF480649C
S21408111004F1320410F0004548BF40424FF0000189
S2140811203EE700BF42004FEAE2014FEA31014FEACC
S21408113002701FBF12F07F4393F07F4F81F060511B
S214081140704792F0000F14BF93F07F4F704730B58A
S2140811504FF4607401F0004521F0004120E700BF1D
S21408116050EA010208BF704730B54FF000050AE0A4
S21408117050EA010208BF704730B511F0004502D5A5
S214081180404261EB41014FF4806404F132045FEAA7
S214081190915C3FF4DCAE4FF003025FEADC0C18BF4C
S2140811A003325FEADC0C18BF033202EBDC02C2F142
S2140811B0200300FA03FC20FA02F001FA03FE40EAD4
S2140811C00E0021FA02F11444C1E600BF70B54FF0D4
S2140811D0FF0C4CF4E06C1CEA11541DBF1CEA1355B6
S2140811E094EA0C0F95EA0C0F00F0DEF82C4481EA1E
S2140811F0030621EA4C5123EA4C5350EA013518BF3E
S21408120052EA033541F4801143F4801338D0A0FB2A
S21408121002CE4FF00005E1FB02E506F00042E0FBD7
S21408122003E54FF00006E1FB03569CF0000F18BFDD
S2140812304EF0010EA4F1FF04B6F5007F64F5407485
S21408124004D25FEA4E0E6D4146EB060642EAC62118
S21408125041EA55514FEAC52040EA5E504FEACE2E85
S214081260B4F1FD0C88BFBCF5E06F1ED8BEF1004F88
S21408127008BF5FEA500E50F1000041EB045170BD04
S21408128006F0004646EA010140EA020081EA030148
S214081290B4EB5C04C2BFD4EB0C0541EA045170BD44
S2140812A041F480114FF0000E013C00F3AB8014F1BE
S2140812B0360FDEBF002001F0004170BDC4F1000407
S2140812C0203C35DA0C341BDC04F11404C4F1200588
S2140812D000FA05F320FA04F001FA05F240EA0200E3
S2140812E001F0004221F0004110EBD37021FA04F619
S2140812F042EB06015EEA430E08BF20EAD37070BDD3
S214081300C4F10C04C4F1200500FA04F320FA05F031
S21408131001FA04F240EA020001F0004110EBD37033
S21408132041F100015EEA430E08BF20EAD37070BDA3
S214081330C4F1200500FA05F24EEA020E20FA04F37C
S21408134001FA05F243EA020321FA04F001F000412B
S21408135021FA04F220EA020000EBD3705EEA430E9C
S21408136008BF20EAD37070BD94F0000F0FD101F0CB
S2140813700046400041EB010111F4801F08BF013C04
S214081380F7D041EA060195F0000F18BF704703F042
S2140813900046520043EB030313F4801F08BF013DC9
S2140813A0F7D043EA0603704794EA0C0F0CEA135585
S2140813B018BF95EA0C0F0CD050EA410618BF52EA3F
S2140813C04306D1D181EA030101F000414FF0000045
S2140813D070BD50EA410606BF1046194652EA430653
S2140813E019D094EA0C0F02D150EA013613D195EAC7
S2140813F00C0F05D152EA03361CBF104619460AD10F
S21408140081EA030101F0004141F0FE4141F4700118
S2140814104FF0000070BD41F0FE4141F4780170BD08
S21408142070B54FF0FF0C4CF4E06C1CEA11541DBF6D
S2140814301CEA135594EA0C0F95EA0C0F00F0A7F86F
S214081440A4EB050481EA030E52EA03354FEA01319C
S21408145000F088804FEA03334FF0805545EA1313AF
S21408146043EA12634FEA022245EA111545EA106577
S2140814704FEA00260EF000419D4208BF964244F10E
S214081480FD0404F5407402D25B084FEA3202B61A2D
S21408149065EB03055B084FEA32024FF480104FF401
S2140814A0002CB6EB020E75EB030E22BFB61A754675
S2140814B040EA0C005B084FEA3202B6EB020E75EB08
S2140814C0030E22BFB61A754640EA5C005B084FEA70
S2140814D03202B6EB020E75EB030E22BFB61A75463D
S2140814E040EA9C005B084FEA3202B6EB020E75EB48
S2140814F0030E22BFB61A754640EADC0055EA060E09
S21408150018D04FEA051545EA16754FEA06164FEA4B
S214081510C30343EA52734FEAC2025FEA1C1CC0D1F7
S21408152011F4801F0BD141EA00014FF000004FF084
S214081530004CB6E711F4801F04BF01430020B4F145
S214081540FD0C88BFBCF5E06F3FF6AFAEB5EB030CFD
S21408155004BFB6EB020C5FEA500C50F1000041EBFA
S214081560045170BD0EF0004E4EEA113114EB5C04C7
S214081570C2BFD4EB0C0541EA045170BD41F480119A
S2140815804FF0000E013C90E645EA060E8DE60CEAA2
S214081590135594EA0C0F08BF95EA0C0F3FF43BAFBF
S2140815A094EA0C0F0AD150EA01347FF434AF95EA76
S2140815B00C0F7FF425AF104619462CE795EA0C0F5A
S2140815C006D152EA03353FF4FDAE1046194622E727
S2140815D050EA410618BF52EA43067FF4C5AE50EA01
S2140815E041047FF40DAF52EA43057FF4EBAE12E7F1
S2140815F04FEA410212F5001215D211D56FF478732E
S214081600B3EB625212D94FEAC12343F0004343EAD0
S214081610505311F0004F23FA02F018BF40427047AB
S2140816204FF00000704750EA013005D111F0004035
S21408163008BF6FF0004070474FF00000704700BFCB
S21408164080F0004002E000BF81F0004142001FBF6A
S2140816505FEA410392EA030F7FEA226C7FEA236C73
S2140816606AD04FEA1262D2EB1363C1BFD218414068
S21408167048404140B8BF5B42192B88BF704710F0FE
S214081680004F40F4000020F07F4018BF404211F0A1
S214081690004F41F4000121F07F4118BF494292EA09
S2140816A0030F3FD0A2F1010241FA03FC10EB0C0035
S2140816B0C3F1200301FA03F100F0004302D54942C2
S2140816C060EB4000B0F5000F13D3B0F1807F06D36F
S2140816D040084FEA310102F10102FE2A51D2B1F167
S2140816E0004F40EBC25008BF20F0010040EA03005C
S2140816F07047490040EB000010F4000FA2F1010209
S214081700EDD1B0FA80FCACF1080CB2EB0C0200FA92
S2140817100CF0AABF00EBC25052421843BCBFD040E0
S2140817201843704792F0000F81F4000106BF80F45A
S21408173000000132013BB5E74FEA41037FEA226C1D
S21408174018BF7FEA236C21D092EA030F04D092F0E8
S214081750000F08BF0846704790EA010F1CBF00201C
S214081760704712F07F4F04D1400028BF40F0004079
S214081770704712F100723CBF00F50000704700F099
S214081780004343F0FE4040F4000070477FEA2262C0
S21408179016BF08467FEA23630146420206BF5FEA91
S2140817A0412390EA010F40F4800070474FF0000391
S2140817B004E000BF10F0004348BF40425FEA000C58
S2140817C008BF704743F0964301464FF000001CE000
S2140817D050EA010208BF70474FF000030AE000BF56
S2140817E050EA010208BF704711F0004302D5404294
S2140817F061EB41015FEA010C02BF84460146002006
S21408180043F0B64308BFA3F18053A3F50003BCFA20
S2140818108CF2083AA3EBC25310DB01FA02FC6344CD
S21408182000FA02FCC2F12002BCF1004F20FA02F2D4
S21408183043EB020008BF20F00100704702F12002C7
S21408184001FA02FCC2F1200250EA4C0021FA02F228
S21408185043EB020008BF20EADC7070474FF0FF0C2D
S2140818601CEAD0521EBF1CEAD15392EA0C0F93EA28
S2140818700C0F6FD01A4480EA010C400218BF5FEACA
S21408188041211ED04FF0006343EA501043EA51113D
S214081890A0FB01310CF00040B1F5000F3EBF490037
S2140818A041EAD3715B0040EA010062F17F02FD2A3B
S2140818B01DD8B3F1004F40EBC25008BF20F001001E
S2140818C0704790F0000F0CF0004C08BF49024CEA35
S2140818D0502040EA51207F3AC2BFD2F1FF0340EAC7
S2140818E0C250704740F400004FF00003013A5DDC38
S2140818F012F1190FDCBF00F000407047C2F1000279
S214081900410021FA02F1C2F1200200FA02FC5FEA65
S214081910310040F1000053EA4C0308BF20EADC70AF
S214081920704792F0000F00F0004C02BF400010F421
S214081930000F013AF9D040EA0C0093F0000F01F0CE
S214081940004C02BF490011F4000F013BF9D041EAF0
S2140819500C018FE70CEAD15392EA0C0F18BF93EAF2
S2140819600C0F0AD030F0004C18BF31F0004CD8D11C
S21408197080EA010000F00040704790F0000F17BFA3
S21408198090F0004F084691F0000F91F0004F14D0E9
S21408199092EA0C0F01D142020FD193EA0C0F03D141
S2140819A04B0218BF084608D180EA010000F0004044
S2140819B040F0FE4040F40000704740F0FE4040F41F
S2140819C0400070474FF0FF0C1CEAD0521EBF1CEABE
S2140819D0D15392EA0C0F93EA0C0F69D0A2EB0302DC
S2140819E080EA010C49024FEA402037D04FF0805376
S2140819F043EA111143EA10130CF000408B4238BF3B
S214081A005B0042F17D024FF4000C8B4224BF5B1A48
S214081A1040EA0C00B3EB510F24BFA3EB510340EA96
S214081A205C00B3EB910F24BFA3EB910340EA9C0044
S214081A30B3EBD10F24BFA3EBD10340EADC001B01B4
S214081A4018BF5FEA1C1CE0D1FD2A3FF650AF8B4258
S214081A5040EBC25008BF20F0010070470CF0004C65
S214081A604CEA50207F32C2BFD2F1FF0340EAC25090
S214081A70704740F400004FF00003013A37E792F051
S214081A80000F00F0004C02BF400010F4000F013AAF
S214081A90F9D040EA0C0093F0000F01F0004C02BFAA
S214081AA0490011F4000F013BF9D041EA0C0195E713
S214081AB00CEAD15392EA0C0F08D142027FF47DAFAC
S214081AC093EA0C0F7FF470AF084676E793EA0C0F9C
S214081AD004D14B023FF44CAF08466EE730F0004C9A
S214081AE018BF31F0004CCAD130F000427FF45CAF2A
S214081AF031F000437FF43CAF5FE700BF70B50F4E90
S214081B000F4D761BB61018BF002405D0013455F8C3
S214081B10043B9847A642F9D10A4E0B4D00F0D2F87E
S214081B20761BB61018BF002406D0013455F8043BBF
S214081B309847A642F9D170BD70BD00BFD01C0800FA
S214081B40D01C0800D81C0800D01C0800024B13B193
S214081B50024800F005B87047000000006D1B08003A
S214081B60002301461A46184600F01EB838B50A4C37
S214081B700A4D641BA4100AD004F18043013B05EB10
S214081B808305013C55F804399847002CF9D1BDE87F
S214081B90384000F0A1B800BFE81C0800E41C0800A4
S214081BA0704700BF704700BF2DE9F8432C4D064626
S214081BB0286898460F469146FFF7F2FF294B1C689F
S214081BC0D4F84831002B3ED05A681F2A1CDC02F194
S214081BD0010E76B1012103EB8204C4F88890D3F88D
S214081BE0880191400843022EC3F88801C4F808818A
S214081BF023D00232C3F804E0286843F82270FFF7BF
S214081C00D1FF0020BDE8F883174B0BB34FF4C8701C
S214081C10AFF300800346D8B10020D4F848114FF03F
S214081C20010E586019600246C4F84831C3F88801A6
S214081C30C3F88C01002EDCD0CCE7D3F88C01014326
S214081C40C3F88C11D5E704F5A673C4F84831BBE78A
S214081C502868FFF7A7FF4FF0FF30BDE8F88300BFFE
S214081C6050040020C01C08000000000043414E300D
S214081C70206D657373616765206172726976656445
S214081C8020696E206E6F6E2D75736564206D6169B0
S214081C906C626F780A0D0000286E756C6C2900005F
S214081CA04552523A20554152542052582062756681
S214081CB06665722069732066756C6C0A0D000000F4
S214081CC028000020F8B500BFF8BC08BC9E46704740
S214081CD04D1B080019010800F8B500BFF8BC08BC81
S20C081CE09E467047F500080057
S214081CE800093D0000000000000000000000000099
S214081CF800000000000000000000000000000000CF
S214081D08D6060000000000000000000014030020AB
S214081D187C030020E4030020000000000000000008
S214081D28000000000000000000000000000000009E
S214081D38000000000000000000000000000000008E
S214081D48000000000000000000000000000000007E
S214081D58000000000000000000000000000000006E
S214081D68000000000000000000000000000000005E
S214081D78000000000000000000000000000000004E
S214081D88000000000000000000000000000000003E
S214081D98000000000000000000000000000000002E
S214081DA8000000000000000000000000000000001E
S214081DB801000000000000000E33CDAB34126DE6BB
S214081DC8ECDE05000B000000000000000000000024
S214081DD800000000000000000000000000000000EE
S214081DE800000000000000000000000000000000DE
S214081DF800000000000000000000000000000000CE
S214081E0800000000000000000000000000000000BD
S208082138D0040020A2
S804080000F3
