:100000000C9460030C949D040C947D030C947D036C
:100010000C947D030C947D030C947D030C947D0360
:100020000C947D030C947D030C947D030C947D0350
:100030000C947D030C947D030C947D030C947D0340
:100040000C947D030C947D030C947D030C947D0330
:100050000C947D030C947D030C947D030C947D0320
:100060000C947D030C947D030C947D030C947D0310
:1000700000000000005C00000C000C007C287C28C4
:1000800058DC68002410480028542840000C000068
:10009000007884008478000054385400107C1000EC
:1000A00080400000101010000040000060100C00A4
:1000B00038543800487C40004864580044542C00B0
:1000C0001C107C005C5424003854240064140C0080
:1000D00068542C0048543800004800008048000054
:1000E0001028440028282800442810000454080040
:1000F00038445C00781478007C5428003844280088
:100100007C4438007C5444007C140400384474005F
:100110007C107C00447C440020403C007C106C003F
:100120007C4040007C187C0078103C00384438004B
:100130007C1408003844B8007C146800485424003B
:10014000047C04007C407C003C603C007C307C00F3
:100150006C106C000C700C0064544C00007C44006B
:100160000C106000447C00000804080080808000BF
:1001700000040800304878007C48300030484800CF
:1001800030487C00306850001078140090A8780047
:100190007C08700050744000808074007C106800FF
:1001A000447C4000781078007808700030483000B7
:1001B000F82810003048F80078100800505828003F
:1001C000083C4800384078003840380078207800F3
:1001D0004830480098A0780048685800107884009B
:1001E000007C00008478100008040804000000006F
:1001F0000000005F00000007000700147F147F1458
:10020000242A7F2A1223130864623649552250009B
:1002100005030000001C2241000041221C00082AA6
:100220001C2A0808083E080800503000000808088A
:100230000808006060000020100804023E51494593
:100240003E00427F400042615149462141454B31C9
:100250001814127F1027454545393C4A4949300159
:10026000710905033649494936064949291E0036B0
:100270003600000056360000000814224114141401
:10028000141441221408000201510906324979412F
:100290003E7E1111117E7F494949363E414141223E
:1002A0007F4141221C7F494949417F090901013EA3
:1002B000414151327F0808087F00417F41002040C2
:1002C000413F017F081422417F404040407F0204AB
:1002D000027F7F0408107F3E4141413E7F090909AA
:1002E000063E4151215E7F09192946464949493157
:1002F00001017F01013F4040403F1F2040201F7F00
:100300002018207F631408146303047804036151E8
:1003100049454300007F4141020408102041417FCC
:100320000000040201020440404040400001020479
:100330000020545454787F4844443838444444207E
:10034000384444487F3854545418087E0901020840
:100350001454543C7F0804047800447D400020403D
:10036000443D00007F10284400417F40007C041879
:1003700004787C0804047838444444387C14141409
:1003800008081414187C7C080404084854545420A9
:10039000043F4440203C4040207C1C2040201C3C2A
:1003A0004030403C44281028440C5050503C446499
:1003B000544C44000836410000007F0000004136E4
:1003C000080002010302010000000000000000001C
:1003D000065F5F0600000000070700070700001423
:1003E0007F7F147F7F1400242E6B6B3A120000462F
:1003F0006630180C666200307A4F5D377A48000428
:1004000007030000000000001C3E634100000000E4
:1004100041633E1C000000082A3E1C1C3E2A0808BE
:10042000083E3E0808000000A0E060000000000850
:100430000808080808000000006060000000006074
:1004400030180C060301003E7F594D7F3E000042EC
:10045000427F7F40400000627359496F660000226E
:100460006349497F360000181C16137F7F10002750
:100470006745457D3900003C7E4B497930000003DB
:100480006371190F070000367F49497F3600000667
:100490004F49693F1E000000006C6C000000000026
:1004A000A0EC6C00000000081C3663410000001442
:1004B00014141414140000004163361C08000002D8
:1004C0000351590F0600003E7F415D5D1F1E007CF9
:1004D0007E13137E7C0000417F7F49497F36001CDC
:1004E0003E634141632200417F7F41637F1C0041A5
:1004F0007F7F495D416300417F7F491D0103001CEF
:100500003E6341517372007F7F08087F7F000000C7
:10051000417F7F41000000307040417F3F0100413A
:100520007F7F081C776300417F7F41406070007FC0
:100530007F060C067F7F007F7F060C187F7F001CE4
:100540003E6341633E1C00417F7F49090F06001E48
:100550003F21717F5E0000417F7F19396F46002681
:10056000674D597B32000003417F7F410300007FCC
:100570007F40407F7F00001F3F60603F1F00007F83
:100580007F3018307F7F0063771C081C776300077B
:100590004F78784F0700006773594D47637100002B
:1005A0007F7F41410000000103060C18306000000D
:1005B00041417F7F000000080C0603060C08008004
:1005C000808080808080800000030704000000207D
:1005D0007454543C784000413F7F44447C38003898
:1005E0007C44446C280000307848493F7F40003804
:1005F0007C54545C180000487E7F49030200009838
:10060000BCA4A4F87C0400417F7F08047C7800002F
:10061000447D7D4000000040C484FD7D0000004119
:100620007F7F10386C440000417F7F400000007CD9
:100630007C0C180C7C78007C7C04047C78000038EE
:100640007C44447C38000084FCF8A4243C18001846
:100650003C24A4F8FC8400447C78441C1800004826
:100660005C54547424000000043E7F442400003C89
:100670007C40403C7C40001C3C60603C1C00003CDA
:100680007C6030607C3C00446C3810386C44009CCA
:10069000BCA0A0FC7C00004C64745C4C64000008AE
:1006A000083E7741410000000000777700000041DC
:1006B00041773E0808000002030103020301000025
:1006C00011241FBECFEFD4E0DEBFCDBF12E0A0E00B
:1006D000B1E0EAE3FFE202C005900D92A23BB10750
:1006E000D9F722E0A2EBB2E001C01D92A23EB20710
:1006F000E1F70E94C20F0C949B170C9400008D9A96
:100700008FB580648FBD8EB589608EBD1BBC1ABC51
:100710000895E0910601F09107011082482F50E002
:10072000E0910601F091070120E030E080812F5F29
:100730003F4F42175307D4F708950E949E0561E08A
:100740008BE20E943B05F89482E085BF80E48BBF7A
:10075000789408958F929F92AF92BF92CF92DF923A
:10076000EF92FF920F931F93CF93DF93CDB7DEB736
:100770002B970FB6F894DEBF0FBECDBFE982FA8289
:100780000B831C832D833E834F83588769877A8729
:100790008B8789809A80B401759567957595679563
:1007A0007595679581E30E943B05682D6295660FFC
:1007B000607E82E30E943B05A02EB12C602F85E372
:1007C0000E943B056E0184E0C80ED11C16E3E12CAB
:1007D000F12CF60161916F01812F0E943B05FFEF23
:1007E000EF1AFF0A1F5FAE14BF049CF78EE091E082
:1007F0000E9480148E811F928F938D811F928F9300
:100800008C811F928F931F920F939F928F9284E2FD
:1008100091E09F938F930E946A1481E890E00E9478
:1008200067050FB6F894DEBF0FBECDBF2B960FB68F
:10083000F894DEBF0FBECDBFDF91CF911F910F9116
:10084000FF90EF90DF90CF90BF90AF909F908F90F0
:1008500008956F927F928F929F92AF92BF92CF92A4
:10086000DF92EF92FF920F931F93CF93DF93CDB759
:10087000DEB72B970FB6F894DEBF0FBECDBF4C018D
:1008800081E60E942705A82E82E60E942705B12C4A
:10089000AA0CBB1CAA0CBB1CAA0CBB1C90E0959517
:1008A0008795959587959595879595958795959530
:1008B0008795A82AB92A85E60E942705682EC82EA2
:1008C000D12C7E0184E0E80EF11C0F2EF6E67F2E7F
:1008D000F02D00E010E0872D0E942705F70181939D
:1008E0007F010F5F1F4F7394C016D106A4F740E03D
:1008F00061E08CE20E947A05BA82A9826B828BE069
:10090000FE013196D40101900D928A95E1F7C40160
:100910002B960FB6F894DEBF0FBECDBFDF91CF91FF
:100920001F910F91FF90EF90DF90CF90BF90AF900D
:100930009F908F907F906F9008951F920F920FB6A7
:100940000F9211240F931F932F933F934F935F9315
:100950006F937F938F939F93AF93BF93EF93FF9387
:10096000CF93DF93CDB7DEB72B97DEBFCDBFCE01E0
:1009700001960E94290489819A81029709F04CC04E
:1009800082E090E09093D1028093D0028C811F92FC
:100990008F938B811F928F931F9282E08F9380E6BB
:1009A00091E09F938F930E946A140FB6F894DEBF74
:1009B0000FBECDBF8091BE029091BF02892B11F472
:1009C0000E94EE050E943F0C83E090E00E94010C23
:1009D00084E190E00E94F80C62E085E891E00E94DA
:1009E000200D9FE322E48FE0915020408040E1F70A
:1009F00000C000001092C7021092C60201E010E091
:100A00001093B3020093B2020E943F0C0E94150B98
:100A10001093BF020093BE022B960FB6F894DEBF70
:100A20000FBECDBFDF91CF91FF91EF91BF91AF91FD
:100A30009F918F917F916F915F914F913F912F91F6
:100A40001F910F910F900FBE0F901F901895CF938D
:100A5000C82F0E94450F83E090E00E94410F8C2F29
:100A600090E00E94410F0E943C0FC82F0E94470F48
:100A70008C2FCF910895CF93DF93D82FC62F0E944C
:100A8000450F82E090E00E94410F8D2F90E00E9480
:100A9000410F8C2F90E00E94410F0E94470F89EF79
:100AA00090E00197F1F700C00000DF91CF91089529
:100AB0000E94450F80EC90E00E94410F0E94470F7A
:100AC00089EF90E00197F1F700C000000895CF93FF
:100AD000DF93EC010E94450FCE010E94410F0E945E
:100AE000470F89EF90E00197F1F700C00000DF9118
:100AF000CF9108951F93CF93DF93182FD62FC42F34
:100B00000E94450F85E090E00E94410F812F90E008
:100B10000E94410F8D2F90E00E94410F8C2F90E09A
:100B20000E94410F0E94470F89EF90E00197F1F773
:100B300000C00000DF91CF911F9108950E94340FF3
:100B40000E9458058EE00E942705807E803831F093
:100B50008FE891E00E94801481E0089561E48AE2C8
:100B60000E943B0565EB89E20E943B0561E088E25B
:100B70000E943B0560E08FE00E943B058EE00E94F2
:100B80002705807E803471F41F928F9381EC91E071
:100B90009F938F930E946A140F900F900F900F9065
:100BA00080E0089580E00895E199FECF9FBB8EBB61
:100BB0006DBBE29AE19A0895E199FECF9FBB8EBB8F
:100BC000E09A8DB390E008958091C6029091C7029B
:100BD00001969093C7028093C60208950F931F93C6
:100BE000CF93DF932091CC023091CD028091C60249
:100BF0009091C702281739075CF4E8ECF2E04281D3
:100C0000538151834083338322839583848326C019
:100C10002091CA023091CB02281739073CF4E8EC46
:100C2000F2E0318320839383828318C02091C8022D
:100C30003091C902281739078CF49093C902809328
:100C4000C8020CC0F801619171918F01CE010E9420
:100C5000D4052196C330D105A9F705C008EC12E0F0
:100C6000C0E0D0E0EFCFDF91CF911F910F910895B9
:100C70000F931F93CF93DF9308EC12E0C3E0D0E013
:100C8000CE010E94DC05F801929382938F01219797
:100C9000B8F7DF91CF911F910F910895FF920F93B5
:100CA0001F93CF93DF93CDB7DEB728970FB6F89495
:100CB000DEBF0FBECDBF80E00E948903182F81E008
:100CC0000E948903082F82E00E948903F82E83E0A6
:100CD0000E948903202F30E03A832983412F50E07E
:100CE0005C834B83682F70E07E836D838F2D90E053
:100CF00098878F833A815C817E81988528960FB68C
:100D0000F894DEBF0FBECDBFDF91CF911F910F9141
:100D1000FF90089581E00E94890390E09093D302B0
:100D20008093D20280E00E94890390E09093CF02EA
:100D30008093CE020895EF92FF920F931F93CF936B
:100D4000DF93CDB7DEB760970FB6F894DEBF0FBE66
:100D5000CDBF29873A874B875C876D877E878F87D2
:100D6000988B0B851C858091CE029091CF02081B39
:100D7000190B6D857E85072E000C880B990B0E9440
:100D8000D41120E030E04FEF52E40E94BD1020E08B
:100D900030E048E453E40E94601220E030E04FE786
:100DA00053E40E942A110E949C11F62EE72E6F85B3
:100DB0007889072E000C880B990B0E94D41120E033
:100DC00030E04FEF52E40E94BD1020E030E048E4F4
:100DD00053E40E94601220E030E04FE753E40E94A9
:100DE0002A110E949C11862F29853A854091D202B2
:100DF0005091D302241B350B3A8329831C830B8328
:100E00004F2D5E2D5E834D83462F572F58874F837E
:100E10003A81402F5C816F2D7E81988560960FB658
:100E2000F894DEBF0FBECDBFDF91CF911F910F9120
:100E3000FF90EF900895CF93DF93CDB7DEB728975B
:100E40000FB6F894DEBF0FBECDBF29833A834B8324
:100E50005C8329813A818B819C812630310524F085
:100E60002817390794F119C08630910524F0281706
:100E700039077CF515C08B3F4FEF940724F42817F2
:100E800039076CF110C02B3F4FEF34077CF4281763
:100E900039077CF484E092E02DC08DE892E02AC00E
:100EA0008CEF91E027C08FEF91E024C089E092E0C1
:100EB00021C089E092E01EC08CEF91E01BC089E068
:100EC00092E018C089E092E015C086309105A4F741
:100ED0000CC08B3F9F4F9CF78FEF91E00BC02B3FD7
:100EE0003F4F84F784E092E005C08B3F4FEF9407BB
:100EF000B4F3C9CF28960FB6F894DEBF0FBECDBFAE
:100F0000DF91CF9108958F929F92AF92BF92CF922F
:100F1000DF92EF92FF920F931F93CF93DF93CDB7A2
:100F2000DEB760970FB6F894DEBF0FBECDBF0E944C
:100F30004E060E949B0629873A874B875C876D8700
:100F40007E878F87988B69857A850B851C857723AB
:100F500054F1072E000C880B990B0E94D41120E04D
:100F600030E048EC52E40E9460126B017C01609119
:100F7000D2027091D302072E000C880B990B0E94AD
:100F8000D4119B01AC0160E070E08FE793E40E9414
:100F9000BD109B01AC01C701B6010E942A110E943D
:100FA0009C117B010DC024E6269FC001279F900D58
:100FB00011246091D2027091D3020E94CD127B0164
:100FC00011234CF1B801110F880B990B0E94D41119
:100FD00020E030E048EC52E40E9460124B015C01DA
:100FE0006091CE027091CF02072E000C880B990BF6
:100FF0000E94D4119B01AC0160E070E08FE793E4A4
:101000000E94BD109B01AC01C501B4010E942A11D0
:101010000E949C110CC024E6209FC001219F900DCE
:1010200011246091CE027091CF020E94CD12FA86F7
:10103000E9867C876B8788E0FE013996DE01119690
:1010400001900D928A95E1F729813A814B815C816B
:101050006D817E818F81988560960FB6F894DEBF92
:101060000FBECDBFDF91CF911F910F91FF90EF90F9
:10107000DF90CF90BF90AF909F908F900895CF93C7
:10108000DF93CDB7DEB728970FB6F894DEBF0FBE5B
:10109000CDBF0E9483070E941B0728960FB6F894C5
:1010A000DEBF0FBECDBFDF91CF910895AF92BF924B
:1010B000CF92DF92EF92FF920F931F93CF93DF9324
:1010C000CDB7DEB76B970FB6F894DEBF0FBECDBFBE
:1010D0008091D0029091D102019709F06CC0CC248C
:1010E000C394D12C0F2EF3E0BF2EF02D0F2EFAE07B
:1010F000AF2EF02D2C853D854E855F8568897989D9
:101100008A899B890E9483072C8B3D8B4E8B5F8B3A
:10111000688F798F8A8F9B8F8C899D892A8D3B8DD3
:10112000DA82C982BB828B3F6FEF96071CF487532C
:101130008C8309C0BC016C5F7F4F6930710510F46E
:101140001C8201C08C831216130614F42D8302C076
:1011500027532D83B29B02C0AE8201C01E82E9805C
:10116000FA800B811C812D813E814F8158856985D4
:101170007A858B850E94AA030E94E405E980FA80A3
:101180000B811C812D813E814F81588569857A852F
:101190008B850E94520E9FEF2FEB63E09150204011
:1011A0006040E1F700C000008091D0029091D10230
:1011B000019709F49FCF6B960FB6F894DEBF0FBE70
:1011C000CDBFDF91CF911F910F91FF90EF90DF90F6
:1011D000CF90BF90AF900895EF92FF920F931F931F
:1011E000CF93DF93CDB7DEB72B970FB6F894DEBF62
:1011F0000FBECDBF89E0E82E89831A8281E08B8300
:101200008C83F12C01E011E02D813E814F815885C6
:1012100069857A858B850E94AA032FEF8FEB93E077
:10122000215080409040E1F700C000002B960FB69F
:10123000F894DEBF0FBECDBFDF91CF911F910F910C
:10124000FF90EF900895EF92FF920F931F93CF932B
:10125000DF93CDB7DEB72B970FB6F894DEBF0FBE86
:10126000CDBF89E0E82E89831A8281E08B8382E0FA
:101270008C83F12C01E012E02D813E814F81588555
:1012800069857A858B850E94AA032FEF8FEB93E007
:10129000215080409040E1F700C000002B960FB62F
:1012A000F894DEBF0FBECDBFDF91CF911F910F919C
:1012B000FF90EF900895AF92BF92CF92DF92EF929E
:1012C000FF921F93CF93DF93EC0186B316B3127096
:1012D00080FD30C18881998181519240B9F50E9489
:1012E0003F0C81E090E09093D1028093D0028091F6
:1012F000B2029091B302019731F41092B5021092AC
:10130000B4020E94EC088091B4029091B502892B3E
:1013100011F40E94EC080E94990F42E350E063E050
:1013200070E084E090E00E942C0E0E943F0C83E06D
:1013300090E00E94010C84E190E00E94F80C62E0D1
:1013400087E192E00E94200D0E94560888819981D1
:101350008452924001F50E948A060E94990F0E94D1
:101360003F0C83E090E00E94010C8EE190E00E942F
:10137000F80C61E08EE292E00E94200DFFEF2FEF6B
:101380008DE1F15020408040E1F700C000000E9454
:101390003F0C0E94150B888199818953924041F539
:1013A0000E94990F8091B4029091B502029719F4AE
:1013B0000E94230902C00E94EC080E943F0C83E0B7
:1013C00090E00E94010C8AE090E00E94F80C62E03C
:1013D00080E492E00E94200D0E94BA0E0E943F0C11
:1013E0000E94150B81E090E09093BF028093BE02B3
:1013F000888199818F549240C9F50E943F0C62E028
:1014000089E592E00E94200D0E9438060F2EF0EC34
:10141000CF2EF2E0DF2EF02D6894EE24E1F8F12CCF
:10142000F601819191916F010E948C0D5C01C701C1
:101430000E94010C83E290E00E94F80C62E0C5017A
:101440000E94200DFFEFEF1AFF0A25E0E216F104DB
:1014500039F78FEF9FEFECE281509040E040E1F7E9
:1014600000C000C00E943F0C0E94150B888199812A
:101470008456924069F40E943F0C2FEF8FEF9DE15C
:10148000215080409040E1F700C000000E947F0B97
:10149000888199818956924021F40E943F0C0E94D4
:1014A000BB0B888199818257924061F40E94EC08BD
:1014B00081E090E09093B5028093B4020E943F0CCB
:1014C0000E94150B888199818757924061F40E9490
:1014D000230982E090E09093B5028093B4020E94C9
:1014E0003F0C0E94150B888199818158924041F4EC
:1014F00082E390E00E94450E0E943F0C0E94150B73
:10150000888199818558924041F486E990E00E9453
:10151000450E0E943F0C0E94150B888199818C58C2
:10152000924041F48FEF90E00E94450E0E943F0CE4
:101530000E94150B123021F40E943F0C0E94150BE3
:10154000DF91CF911F91FF90EF90DF90CF90BF90F0
:10155000AF900895CF93DF93EC018AE090E00E9472
:10156000F512FC01D183C0838091B80280FD0BC0CD
:101570008AE090E0958384838091B6029091B702CF
:10158000938382830FC086E490E095838483809167
:10159000B6029091B7029383828303969093B70229
:1015A0008093B6021782168211861086CF01DF91D2
:1015B000CF910895CF93DF936091B8027091B902F3
:1015C0000E94AA0AA091BA02B091BB02109771F4CE
:1015D0009093BB028093BA02DC0117969C938E9382
:1015E000169719969C938E93189713C0FD0101C00E
:1015F000F90126813781A217B307D1F79783868334
:10160000EC01BF83AE8319969C938E931897F9874C
:10161000E8878091B8029091B90201969093B9023F
:101620008093B802DF91CF910895CF93DF930E940A
:101630003F0C1092BB021092BA021092B9021092A3
:10164000B8021092B7021092B60281E192E00E94B5
:10165000DA0A8FE492E00E94DA0A84E292E00E94C1
:10166000DA0A89E392E00E94DA0A84E692E00E94B4
:10167000DA0A89E692E00E94DA0AC091BA02D091B1
:10168000BB028A819B810E94010C8C819D810E94FA
:10169000F80C61E0888199810E94200D0E80DF8125
:1016A000C02D8091BA029091BB02C817D90749F7A3
:1016B000DF91CF9108950E94150D88E10E94FB0BE8
:1016C00088E10E94FB0B8EE70E94FB0B8CE30E94DB
:1016D000FB0B88E10E94FB0B08950E94150D80E032
:1016E0000E94FB0B80E00E94FB0B80E00E94FB0B42
:1016F00080E00E94FB0B80E00E94FB0B0895CF93DB
:10170000DF930E943F0C1092BB021092BA0210921B
:10171000B9021092B8021092B7021092B60282E794
:1017200092E00E94DA0A87E792E00E94DA0A60E01B
:1017300070E081E090E00E946D0BC091BA02D09100
:10174000BB028A819B810E94010C8C819D810E9439
:10175000F80C61E0888199810E94200D0E80DF8164
:10176000C02D8091BA029091BB02C817D90749F7E2
:10177000DF91CF910895CF93DF930E943F0C109299
:10178000BB021092BA021092B9021092B8021092E3
:10179000B7021092B60281E892E00E94DA0A85E868
:1017A00092E00E94DA0A8CE892E00E94DA0A60E095
:1017B00070E081E090E00E946D0BC091BA02D09180
:1017C000BB028A819B810E94010C8C819D810E94B9
:1017D000F80C61E0888199810E94200D0E80DF81E4
:1017E000C02D8091BA029091BB02C817D90749F762
:1017F000DF91CF910895E0910801F0910901808374
:1018000008958093BC029093BD02E0910A01F0918B
:101810000B0190E29083E0910A01F0910B0122E02C
:1018200020838055E0910A01F0910B018083E091C3
:101830000A01F0910B0181E28083E0910A01F091AD
:101840000B011082E0910A01F0910B018FE7808378
:10185000E0910A01F0910B019083E0910A01F0916F
:101860000B01108208950E94010C80E890E0E09145
:101870000801F091090110820197C9F70895CF93EB
:10188000DF93C0E0D0E0CE010E94330C2196C83037
:10189000D105C9F780E090E00E94010CDF91CF9163
:1018A0000895E0910A01F0910B018EEA8083E091A6
:1018B0000A01F0910B0181EA8083E0910A01F09125
:1018C0000B018AED8083E0910A01F0910B0182E126
:1018D0008083E0910A01F0910B0188EC8083E09114
:1018E0000A01F0910B0188EA8083E0910A01F091EE
:1018F0000B018FE38083E0910A01F0910B0185EDEC
:101900008083E0910A01F0910B0180E88083E091EF
:101910000A01F0910B0181E88083E0910A01F091C6
:101920000B0180E58083E0910A01F0910B0189EDC4
:101930008083E0910A01F0910B0181E28083E091C4
:101940000A01F0910B0190E29083E0910A01F0917D
:101950000B011082E0910A01F0910B018083E0916C
:101960000A01F0910B011082E0910A01F0910B0144
:101970008FE78083E0910A01F0910B0182E280837E
:10198000E0910A01F0910B0180EB8083E0910A0164
:10199000F0910B0187EB8083E0910A01F0910B013C
:1019A0008BED8083E0910A01F0910B0180E380834D
:1019B000E0910A01F0910B018DEA8083E0910A0128
:1019C000F0910B011082E0910A01F0910B0184EA81
:1019D0008083E0910A01F0910B0186EA8083E09117
:1019E0000A01F0910B018FEA80830E943F0C089559
:1019F000E0910A01F0910B0191E29083E0910A01DC
:101A0000F0910B018083E0910A01F0910B018FE7C7
:101A10008083E0910A01F0910B0180E28083E091E4
:101A20000A01F0910B0110820895CF93DF93EB012F
:101A30000E94010CCE010E94F80CDF91CF91089515
:101A4000CF93DF9361111FC0DC01EC91EE2309F409
:101A500060C0EC012196F0E0EE0FFF1FEE0FFF1FBC
:101A6000E051F0409F012C5F3F4F9491A0910801FD
:101A7000B09109019C933196E217F307B1F7E99110
:101A8000E111E9CF46C0613029F0DC01EC91E111B0
:101A900025C03FC0FC012081222309F43AC0EC019B
:101AA000219630E020523109F901EE0FFF1FEE0FB1
:101AB000FF1FE20FF31FE451FE4F9F012B5F3F4FCB
:101AC0008491A0910801B09109018C9331962E1751
:101AD0003F07B1F729912111E4CF1BC0EC012196FA
:101AE000F0E0EE0FFF1FEE0FFF1FEE0FFF1FE95399
:101AF000FD4F9F01285F3F4F9491A0910801B09145
:101B000009019C9331962E173F07B1F7E991E11136
:101B1000E7CFDF91CF9108958F929F92AF92BF92BE
:101B2000CF92DF92EF92FF920F931F93CF93DF93A9
:101B3000CDB7DEB78C01CDB6DEB6009709F447C04D
:101B400020E030E0EAE0F0E02F5F3F4FBF010E946D
:101B5000CD12CB010097C1F721C02F5F3F4FC801C5
:101B6000B5010E94CD12805D8193062F172F0115BC
:101B7000110599F71216130674F4F9013196EE0D5A
:101B8000FF1DD4018FEFE81AF80A82918D93EE15AC
:101B9000FF05D9F723C020E030E020C08DB79EB705
:101BA000821B930B0FB6F8949EBF0FBE8DBF01969C
:101BB0007C01C9010E94F5124C01F701319620E029
:101BC00030E00F2EFAE0AF2EB12CF02DC6CF80E022
:101BD00090E00E94F5124C0120E030E0F401E20FA9
:101BE000F31F1082C4010FB6F894DEBE0FBECDBE47
:101BF000DF91CF911F910F91FF90EF90DF90CF90E9
:101C0000BF90AF909F908F900895EF92FF920F93A7
:101C10001F93CF93DF937B018A010E948C0DEC010F
:101C2000C7010E94010CC8010E94F80C62E0CE01BD
:101C30000E94200D2FEF8FEF9EE0215080409040BA
:101C4000E1F700C000000E943F0CDF91CF911F918F
:101C50000F91FF90EF900895EF92FF920F931F93D3
:101C6000CF93DF93EC017B018A0199233CF0A8011B
:101C7000B701CE010E94050E2197C8F7DF91CF91E1
:101C80001F910F91FF90EF900895E0910A01F0915C
:101C90000B0191E890838B51E0910801F0910901CB
:101CA00080830895EF92FF920F931F93CF93DF935A
:101CB000CDB7DEB72B970FB6F894DEBF0FBECDBF02
:101CC000E0910C01F0910D018091D4029091D50228
:101CD000E80FF91FE082E091D402F091D50231962D
:101CE00080910C0190910D01E80FF91F0083E091A4
:101CF000D402F091D502329680910C0190910D01A1
:101D0000E80FF91F1083E091D402F091D5023396C9
:101D100080910C0190910D01E80FF91F2083E09153
:101D2000D402F091D502349680910C0190910D016E
:101D3000E80FF91F30838091D4029091D502059667
:101D40009093D5028093D4028091D6029091D702CD
:101D500005969093D7028093D6022B960FB6F894EF
:101D6000DEBF0FBECDBFDF91CF911F910F91FF90CE
:101D7000EF900895EF92FF920F931F93CF93DF930D
:101D8000CDB7DEB72B970FB6F894DEBF0FBECDBF31
:101D90001092D5021092D4028091D6029091D7026F
:101DA000892B09F44CC080E090E0E0910C01F091A7
:101DB0000D01DF01A80FB91F2C9130E03A83298370
:101DC000DC011196AE0FBF1F2C912B83DC01129604
:101DD000AE0FBF1F2C912C83DC011396AE0FBF1FDB
:101DE0002C912D830496E80FF91F80818E8383E266
:101DF00094EF0197F1F700C000008091D402909118
:101E0000D50205969093D5028093D402E980FA809A
:101E10000B811C812D813E814F81588569857A8592
:101E20008B850E94AA038091D4029091D5022091C3
:101E3000D6023091D7028217930708F4B6CF83E910
:101E400092E09F938F930E946A140F900F902B96AD
:101E50000FB6F894DEBF0FBECDBFDF91CF911F91BB
:101E60000F91FF90EF90089587B3806B87BBBE986A
:101E7000C49A81E58DB908951FB8779BFECF8FB1C5
:101E800008958FB9779BFECF0895C4980895C49A9A
:101E9000089580E885BF80E280BF08950E943F0CCE
:101EA00083E090E00E94010C85E090E00E94F80C35
:101EB00062E082EA92E00E94200D2FE382E49FE03C
:101EC000215080409040E1F700C000000E943F0C8C
:101ED00083E090E00E94010C8EE190E00E94F80CFB
:101EE00061E082EA92E00E94200D2FE382E49FE00D
:101EF000215080409040E1F700C000000E943F0C5C
:101F000083E090E00E94010C8EE190E00E94F80CCA
:101F100060E082EA92E00E94200D2FE382E49FE0DD
:101F2000215080409040E1F700C000000E943F0C2B
:101F30000895EF92FF920F931F93CF93DF93CDB746
:101F4000DEB72B970FB6F894DEBF0FBECDBF85E08E
:101F5000E82EF12C01E011E02D813E814F81588562
:101F600069857A858B850E94AA032B960FB6F89413
:101F7000DEBF0FBECDBFDF91CF911F910F91FF90BC
:101F8000EF900895CF93DF93CDB7DEB728970FB6C4
:101F9000F894DEBF0FBECDBF8FE190E00E94B0107D
:101FA0000E94490F0E94510C0E944E0F0E94150B77
:101FB0009093BB028093BA0260E070E080E090E012
:101FC0000E945B0B0E947F030E949D030E94490FA9
:101FD0000E948A0629813A814B815C816D817E81D4
:101FE0008F8198850E943F088C016DE872E00E9405
:101FF0001614892B01F5E091BA02F091BB026481BD
:1020000075816A507109828193810E946D0BE09104
:10201000BA02F091BB020680F781E02DF093BB027B
:10202000E093BA02648175816A507109828193815B
:102030000E945B0B7AC064E072E0C8010E94161433
:10204000892B01F5E091BA02F091BB0264817581A0
:102050006A507109828193810E946D0BE091BA02EE
:10206000F091BB020084F185E02DF093BB02E09378
:10207000BA02648175816A507109828193810E94DC
:102080005B0B53C06CEF71E0C8010E941614892BE2
:1020900019F5E091BA02F091BB02648175816A5032
:1020A0007109828193810E946D0BE091BA02F091D7
:1020B000BB020084F185E02D0084F185E02DF093D2
:1020C000BB02E093BA02648175816A507109828112
:1020D00093810E945B0B29C06FEF71E0C8010E94E1
:1020E0001614892B11F5E091BA02F091BB026481BC
:1020F00075816A507109828193810E946D0BE09114
:10210000BA02F091BB020680F781E02D0680F781CC
:10211000E02DF093BB02E093BA02648175816A50AE
:102120007109828193810E945B0B8091BA02909128
:10213000BB020E945B092FEF8FEB93E021508040A0
:102140009040E1F700C0000045CF5D9BFECF8CB909
:1021500080E090E008955F9BFECF8CB190E0089501
:1021600090BD89B98EE880BD88E18AB96BEA70E1DB
:1021700085EA90E10E941F1408955058BB27AA27B2
:102180000E94D5100C9426120E94181238F00E945A
:102190001F1220F039F49F3F19F426F40C94151205
:1021A0000EF4E095E7FB0C940F12E92F0E94371212
:1021B00058F3BA17620773078407950720F079F47C
:1021C000A6F50C9459120EF4E0950B2EBA2FA02D03
:1021D0000B01B90190010C01CA01A0011124FF27D4
:1021E000591B99F0593F50F4503E68F11A16F040CF
:1021F000A22F232F342F4427585FF3CF46953795CE
:102200002795A795F0405395C9F77EF41F16BA0B92
:10221000620B730B840BBAF09150A1F0FF0FBB1F40
:10222000661F771F881FC2F70EC0BA0F621F731F89
:10223000841F48F4879577956795B795F7959E3FE6
:1022400008F0B0CF9395880F08F09927EE0F979577
:10225000879508950E943E110C9426120E941F1229
:1022600058F00E94181240F029F45F3F29F00C94B6
:102270000F1251110C945A120C9415120E9437121D
:1022800068F39923B1F3552391F3951B550BBB27A5
:10229000AA2762177307840738F09F5F5F4F220FEA
:1022A000331F441FAA1FA9F335D00E2E3AF0E0E8E1
:1022B00032D091505040E695001CCAF72BD0FE2F2B
:1022C00029D0660F771F881FBB1F261737074807BF
:1022D000AB07B0E809F0BB0B802DBF01FF27935877
:1022E0005F4F3AF09E3F510578F00C940F120C941A
:1022F0005A125F3FE4F3983ED4F38695779567953D
:10230000B795F7959F5FC9F7880F911D96958795AB
:1023100097F90895E1E0660F771F881FBB1F6217CA
:1023200073078407BA0720F0621B730B840BBA0B88
:10233000EE1F88F7E09508950E94A3116894B111EB
:102340000C945A1208950E943F1288F09F5798F0FB
:10235000B92F9927B751B0F0E1F0660F771F881FAA
:10236000991F1AF0BA95C9F714C0B13091F00E94C4
:102370005912B1E008950C945912672F782F8827CD
:10238000B85F39F0B93FCCF3869577956795B395EB
:10239000D9F73EF490958095709561957F4F8F4F5A
:1023A0009F4F0895E89409C097FB3EF4909580955F
:1023B000709561957F4F8F4F9F4F9923A9F0F92F0B
:1023C00096E9BB279395F695879577956795B79589
:1023D000F111F8CFFAF4BB0F11F460FF1BC06F5F6F
:1023E0007F4F8F4F9F4F16C0882311F096E911C081
:1023F000772321F09EE8872F762F05C0662371F0A2
:1024000096E8862F70E060E02AF09A95660F771FB5
:10241000881FDAF7880F9695879597F9089597F9A9
:102420009F6780E870E060E008959FEF80EC08957A
:1024300000240A94161617061806090608950024A3
:102440000A9412161306140605060895092E03941D
:10245000000C11F4882352F0BB0F40F4BF2B11F491
:1024600060FF04C06F5F7F4F8F4F9F4F089557FDF0
:102470009058440F551F59F05F3F71F04795880FF2
:1024800097FB991F61F09F3F79F087950895121689
:1024900013061406551FF2CF4695F1DF08C0161635
:1024A00017061806991FF1CF8695710561050894E6
:1024B0000895E894BB2766277727CB0197F90895FD
:1024C0000E9473120C9426120E94181238F00E9477
:1024D0001F1220F0952311F00C940F120C9415127A
:1024E00011240C945A120E94371270F3959FC1F375
:1024F000950F50E0551F629FF001729FBB27F00DB2
:10250000B11D639FAA27F00DB11DAA1F649F662706
:10251000B00DA11D661F829F2227B00DA11D621F55
:10252000739FB00DA11D621F839FA00D611D221F0F
:10253000749F3327A00D611D231F849F600D211DF3
:10254000822F762F6A2F11249F5750409AF0F1F076
:1025500088234AF0EE0FFF1FBB1F661F771F881FDF
:1025600091505040A9F79E3F510580F00C940F12F6
:102570000C945A125F3FE4F3983ED4F38695779516
:102580006795B795F795E7959F5FC1F7FE2B880F85
:10259000911D9695879597F9089597FB072E16F448
:1025A000009407D077FD09D00E94E11207FC05D006
:1025B0003EF4909581959F4F0895709561957F4F5A
:1025C0000895AA1BBB1B51E107C0AA1FBB1FA6177A
:1025D000B70710F0A61BB70B881F991F5A95A9F7CC
:1025E00080959095BC01CD0108950F931F93CF93D3
:1025F000DF938230910510F482E090E0E091DA02FE
:10260000F091DB0220E030E0A0E0B0E0309719F17B
:10261000408151810281138148175907C8F08417FE
:10262000950769F4109731F012960C931297139650
:102630001C9327C00093DA021093DB0222C02115FD
:10264000310519F04217530718F49A01BD01EF0143
:10265000DF01F801DBCF21153105F9F0281B390B1B
:102660002430310580F48A819B816115710521F048
:10267000FB019383828304C09093DB028093DA0290
:10268000FE01329644C0FE01E20FF31F8193919345
:1026900022503109398328833AC02091D8023091E1
:1026A000D902232B41F42091020130910301309390
:1026B000D9022093D8022091000130910101211507
:1026C000310541F42DB73EB7409104015091050109
:1026D000241B350BE091D802F091D902E217F307E1
:1026E000A0F42E1B3F0B2817390778F0AC014E5F82
:1026F0005F4F2417350748F04E0F5F1F5093D902E4
:102700004093D8028193919302C0E0E0F0E0CF01C2
:10271000DF91CF911F910F910895CF93DF93009791
:1027200009F481C0FC01329713821282A091DA026F
:10273000B091DB02109781F420813181820F931FC9
:102740002091D8023091D9022817390751F5F0931A
:10275000D902E093D80267C0ED0120E030E0CE1747
:10276000DF0740F44A815B819E0141155105F1F07C
:10277000EA01F5CFD383C28340815181840F951F35
:10278000C817D90759F488819981840F951F02963B
:10279000918380838A819B81938382832115310574
:1027A00029F4F093DB02E093DA023DC0E901FB83F8
:1027B000EA8349915991C40FD51FEC17FD0761F4C5
:1027C00080819181840F951F0296E9019983888306
:1027D000828193819B838A83E0E0F0E012968D9161
:1027E0009C911397009719F0FD01DC01F7CF8D91B3
:1027F0009C9111979D012E5F3F4F820F931F209157
:10280000D8023091D9022817390769F4309729F492
:102810001092DB021092DA0202C013821282B0938D
:10282000D902A093D802DF91CF910895FB01DC017A
:102830008D91019080190110D9F3990B08950F9390
:102840001F93CF93DF93009731F46115710519F44D
:1028500080E090E03AC08B01EC016EE070E081E036
:1028600090E00E949116FC01892B91F380E883830C
:102870000115110571F01387028781E88383809128
:10288000DC029091DD02892B21F4F093DD02E093CC
:10289000DC022097C9F0D187C0878381826083835F
:1028A0008091DE029091DF02892B71F4F093DF02B8
:1028B000E093DE028091E0029091E102892B21F405
:1028C000F093E102E093E002CF01DF91CF911F91FD
:1028D0000F910895A0E0B0E0E0E7F4E10C947417E4
:1028E000AE014B5F5F4FFA0161917191AF01809131
:1028F000DE029091DF020E94B014E2E00C94901787
:102900000F931F93CF93DF93E091DE02F091DF02EC
:10291000238121FF1BC08C01D0E0C0E0F801819130
:102920008F016091DE027091DF02DB011896ED915C
:10293000FC911997882331F00995892B79F3DFEF02
:10294000CFEFECCF8AE00995892B19F08FEF9FEF3D
:1029500002C08D2F9C2FDF91CF911F910F91089571
:10296000ABE0B0E0E6EBF4E10C9464176C017B01A2
:102970008A01FC0117821682838181FFCCC1CE01BE
:1029800001963C01F6019381F70193FD859193FF38
:1029900081917F01882309F4BAC1853239F493FD0E
:1029A000859193FF81917F01853229F4B60190E0F2
:1029B0000E94CA16E7CF912C212C312CFFE1F31590
:1029C000D8F08B3279F038F4803279F08332A1F488
:1029D000232D20611DC08D3261F0803369F4232DD9
:1029E000216016C0832D8260382EE32DE4603E2ED8
:1029F0002AC0F32DF8601DC037FC2DC020ED280F34
:102A00002A3040F08E32B9F436FC81C1232D206487
:102A1000322E19C036FE06C08AE0989E200D112481
:102A2000922E11C0EAE02E9E200D1124222EF32DAD
:102A3000F0623F2E08C08C3621F4832D8068382E3A
:102A400002C0883641F4F70193FD859193FF81918F
:102A50007F018111B3CF982F9F7D9554933028F437
:102A60000C5F1F4F9FE399830DC0833631F083378E
:102A700071F0833509F059C021C0F8018081898344
:102A80000E5F1F4F88248394912C530113C028019B
:102A9000F2E04F0E511CF801A080B18036FE03C059
:102AA000692D70E002C06FEF7FEFC5010E94BF1675
:102AB0004C018201F32DFF773F2E16C0280122E042
:102AC000420E511CF801A080B18036FE03C0692D72
:102AD00070E002C06FEF7FEFC5010E94AD164C01A0
:102AE000F32DF0683F2E820133FC1BC0822D90E055
:102AF00088169906B0F4B60180E290E00E94CA16EA
:102B00002A94F4CFF50137FC859137FE81915F015E
:102B1000B60190E00E94CA1621102A9421E0821A80
:102B200091088114910471F7E8C0843611F0893658
:102B300041F5F80137FE07C0608171818281938180
:102B40000C5F1F4F08C060817181072E000C880B3D
:102B5000990B0E5F1F4FF32DFF763F2E97FF09C095
:102B600090958095709561957F4F8F4F9F4FF0683E
:102B70003F2E2AE030E0A3010E940617882E861817
:102B800045C0853731F4232D2F7EB22E2AE030E068
:102B900025C0932D997FB92E8F36C1F018F4883552
:102BA00079F0B5C0803719F0883721F0B0C0E92F2F
:102BB000E061BE2EB4FE0DC0FB2DF460BF2E09C037
:102BC00034FE0AC0292F2660B22E06C028E030E06D
:102BD00005C020E130E002C020E132E0F801B7FE9C
:102BE00007C060817181828193810C5F1F4F06C095
:102BF0006081718180E090E00E5F1F4FA3010E9411
:102C00000617882E8618FB2DFF773F2E36FE0DC047
:102C1000232D2E7FA22E891458F434FE0BC032FCD3
:102C200009C0832D8E7EA82E05C0B82CA32C03C00E
:102C3000B82C01C0B92CA4FE0FC0FE01E80DF11D97
:102C40008081803321F49A2D997EA92E09C0A2FE9D
:102C500006C0B394B39404C08A2D867809F0B39467
:102C6000A3FC11C0A0FE06C0B21488F4280C922C5C
:102C70009B180EC0B21460F4B60180E290E00E948E
:102C8000CA16B394F7CFB21418F42B1802C0982CBC
:102C9000212CA4FE10C0B60180E390E00E94CA1669
:102CA000A2FE17C0A1FC03C088E790E002C088E53F
:102CB00090E0B6010CC08A2D867859F0A1FE02C0C2
:102CC0008BE201C080E2A7FC8DE2B60190E00E9499
:102CD000CA16891438F4B60180E390E00E94CA163F
:102CE0009A94F7CF8A94F301E80DF11D8081B60123
:102CF00090E00E94CA168110F5CF222009F442CE3E
:102D0000B60180E290E00E94CA162A94F6CFF6013E
:102D10008681978102C08FEF9FEF2B96E2E10C94A2
:102D200080170F931F93CF93DF93869F8001879F18
:102D3000100D969F100D1124C8010E94F512EC0190
:102D4000009729F0A80160E070E00E94B816CE015B
:102D5000DF91CF911F910F910895FC010590615073
:102D600070400110D8F7809590958E0F9F1F0895A1
:102D7000DC0101C06D9341505040E0F70895FC0123
:102D80006150704001900110D8F7809590958E0F9A
:102D90009F1F08950F931F93CF93DF93FB01238110
:102DA00021FD03C08FEF9FEF2CC022FF16C046818C
:102DB0005781248135814217530744F4A081B181A2
:102DC0009D012F5F3F4F318320838C932681378174
:102DD0002F5F3F4F3783268314C08B01EC01FB012B
:102DE0000084F185E02D0995892BE1F6D80116962E
:102DF0008D919C911797019617969C938E93169799
:102E0000CE01DF91CF911F910F910895FA01AA276A
:102E1000283051F1203181F1E8946F936E7F6E5F1D
:102E20007F4F8F4F9F4FAF4FB1E03ED0B4E03CD0CB
:102E3000670F781F891F9A1FA11D680F791F8A1FAE
:102E4000911DA11D6A0F711D811D911DA11D20D015
:102E500009F468943F912AE0269F11243019305DCF
:102E60003193DEF6CF010895462F4770405D4193C0
:102E7000B3E00FD0C9F7F6CF462F4F70405D4A330D
:102E800018F0495D31FD4052419302D0A9F7EACFD5
:102E9000B4E0A6959795879577956795BA95C9F704
:102EA00000976105710508959B01AC010A2E0694F7
:102EB0005795479537952795BA95C9F7620F731FB0
:102EC000841F951FA01D08952F923F924F925F92ED
:102ED0006F927F928F929F92AF92BF92CF92DF922A
:102EE000EF92FF920F931F93CF93DF93CDB7DEB78F
:102EF000CA1BDB0B0FB6F894DEBF0FBECDBF099423
:102F00002A88398848885F846E847D848C849B8479
:102F1000AA84B984C884DF80EE80FD800C811B8187
:102F2000AA81B981CE0FD11D0FB6F894DEBF0FBEB6
:0A2F3000CDBFED010895F894FFCF26
:102F3A000000E2022000001400120010001854726F
:102F4A00616E736D697474696E6720746865204474
:102F5A006174610049443A2025642C09204C656E4D
:102F6A006774683A25642C0920446174615B305D9A
:102F7A003A25642C0920446174615B315D3A256409
:102F8A002C0920446174615B325D3A2564200A0091
:102F9A0049443A2025642C204C656E6774683A25AA
:102FAA00642C20446174613A256420726563656902
:102FBA007665200A0047414D45204F564552004D3F
:102FCA00435032353135206973204E4F5420696E93
:102FDA0020636F6E66696775726174696F6E206DC2
:102FEA006F64652061667465722072657365742109
:102FFA00004D43503235313520697320696E204CBB
:10300A006F6F704261636B20636F6E66696775727A
:10301A006174696F6E206D6F646520616674657294
:10302A00202564207265736574210A005550004496
:10303A004F574E004C454654004E45555452414C4C
:10304A000053746172740047414D452053544152F4
:10305A005445440043616C6962726174650043417E
:10306A004C49425241544544005265706C617900A2
:10307A005245504C415920535441525445440048FA
:10308A0069676873636F7265004849474853434FDD
:10309A00524553004D6F646500436F6E74726173DD
:1030AA0074004541535900444946464943554C54D6
:1030BA00004C4F57004D454449554D00425249472F
:1030CA004854005265706C6179206973206F766587
:1030DA00720057454C434F4D4520544F2047414DB0
:0230EA0045009F
:00000001FF
